:100000000A128A117E2E00308A000408840A8207B0
:100010000034C034F934A434B03499349234823486
:06002000F8348034903436
:100CFC0083010A128A11702F842E842EFF30F00784
:100D0C000318F10AFF30F107FF307106031D902E16
:100D1C00FF307006031D932E942E842E952E080002
:100D2C00F601F31F9A2E9B2EA42EF209F309F20A58
:100D3C000319F30AF6010314F60DA42EF11FA72EC6
:100D4C00A82EAE2EF009F109F00A0319F10AAE2E05
:100D5C00710870040319B32EB42EEA2EF501031496
:100D6C00F50DC42E01300310F00DF10DFF3E031DE7
:100D7C00B92E0130F4007408F507C42EF11FC72EEC
:100D8C00C82EB82ECA2ECA2E71087302031DD02E7F
:100D9C0070087202031CD32ED42EDB2E7008F202C4
:100DAC007108031CF303F302DB2E01300310F10C6A
:100DBC00F00CFF3E031DDC2E0130F502031DE72E67
:100DCC00E82ECA2EEA2EEA2E7608031DEE2EF42EFD
:100DDC00F209F309F20A0319F30AF42E7308F1016C
:100DEC00F1077208F001F007FB2E0800F601F11F65
:100DFC00002F012F0A2FF009F109F00A0319F10A4B
:100E0C00F6010314F60D0A2FF31F0D2F0E2F182FBA
:100E1C00F209F309F20A0319F30A0130F400740819
:100E2C00F606182FF701F8017108700403191F2F2B
:100E3C00202F5E2FF5010314F50D302F0130031018
:100E4C00F00DF10DFF3E031D252F0130F400740849
:100E5C00F507302FF11F332F342F242F362F362F39
:100E6C0001300310F70DF80DFF3E031D372F7108ED
:100E7C007302031D432F70087202031C462F472F69
:100E8C004F2F7008F2027108031CF303F30277145E
:100E9C004F2F01300310F10CF00CFF3E031D502FAF
:100EAC000130F502031D5B2F5C2F362F5E2F5E2F5A
:100EBC007608031D622F682FF709F809F70A031942
:100ECC00F80A682F7808F101F1077708F001F007AC
:100EDC006F2F0800831603138601871007108312E7
:100EEC000313871487187B2F7F2F83120313071488
:100EFC00822F831203130710832F3230F900003036
:100F0C00FA007A08803AFF0080307F02031D902F90
:100F1C0047307902031C932F942F962F832F832F06
:100F2C0083120313071087140A30F0000030F1000D
:100F3C007A08F301F3077908F201F2070A128A1111
:100F4C00FC260A128A117008013E84000A128A11CA
:100F5C0003200A128A11831203138600E830F00072
:100F6C000330F1000A128A1182260A128A118312A6
:100F7C000313071487100A30F0000030F1007A08D0
:100F8C00F301F3077908F201F2070A128A11962687
:100F9C000A128A117008013E84000A128A11032079
:100FAC000A128A11831203138600E830F000033012
:100FBC00F1000A128A1182260A128A118312031373
:100FCC0087140130F9070318FA0A0030FA077A0877
:100FDC00803AFF0080307F02031DF62F47307902E4
:100FEC00031CF92FFA2F962F832F832F832F0A128E
:040FFC008A1100282E
:02400E007AFF37
:00000001FF
