:100000000A128A11062E00308A000408840A820728
:100010000034C034F934A434B03499349234923476
:06002000F8348034903436
:100C0C0083010A128A11892EF301F401132E01308B
:100C1C00F3070318F40A0030F4077408803AF20062
:100C2C007108803A7202031D1D2E70087302031C9A
:100C3C00202E212E0D2E222E0800F601F31F272E1A
:100C4C00282E312EF209F309F20A0319F30AF601E0
:100C5C000314F60D312EF11F342E352E3B2EF009D8
:100C6C00F109F00A0319F10A3B2E710870040319FB
:100C7C00402E412E772EF5010314F50D512E013027
:100C8C000310F00DF10DFF3E031D462E0130F40054
:100C9C007408F507512EF11F542E552E452E572E44
:100CAC00572E71087302031D5D2E70087202031C0F
:100CBC00602E612E682E7008F2027108031CF3037B
:100CCC00F302682E01300310F10CF00CFF3E031DF3
:100CDC00692E0130F502031D742E752E572E772EBA
:100CEC00772E7608031D7B2E812EF209F309F20A6A
:100CFC000319F30A812E7308F101F1077208F00150
:100D0C00F007882E08008316031387018601081448
:100D1C008814FB01FC01922E831203130818972EE2
:100D2C00982EB42E63307B067C04031D9E2E9F2EC2
:100D3C00A22EFB01FC01A22E0130FB070318FC0ABA
:100D4C000030FC077C08FA01FA077B08F901F90767
:100D5C000A128A1167270A128A11C02E7C08FA011E
:100D6C00FA077B08F901F9070A128A1167270A1298
:100D7C008A11C02E831203138818C52EC62EE22E9C
:100D8C007C087B04031DCB2ECC2ED02E6330FB00B5
:100D9C000030FC00FF30FB070318FC0AFF30FC0797
:100DAC007C08FA01FA077B08F901F9070A128A1183
:100DBC0067270A128A11922E7C08FA01FA077B081F
:100DCC00F901F9070A128A1167270A128A11922E61
:100DDC00922E922E0A128A110028F601F11FF72E7C
:100DEC00F82E012FF009F109F00A0319F10AF601A6
:100DFC000314F60D012FF31F042F052F0F2FF209EB
:100E0C00F309F20A0319F30A0130F4007408F60628
:100E1C000F2FF701F801710870040319162F172F03
:100E2C00552FF5010314F50D272F01300310F00D8C
:100E3C00F10DFF3E031D1C2F0130F4007408F50763
:100E4C00272FF11F2A2F2B2F1B2F2D2F2D2F01304A
:100E5C000310F70DF80DFF3E031D2E2F71087302C2
:100E6C00031D3A2F70087202031C3D2F3E2F462F94
:100E7C007008F2027108031CF303F3027714462F77
:100E8C0001300310F10CF00CFF3E031D472F013015
:100E9C00F502031D522F532F2D2F552F552F76084A
:100EAC00031D592F5F2FF709F809F70A0319F80AE0
:100EBC005F2F7808F101F1077708F001F007662F32
:100ECC0008000A30F0000030F1007A08F301F30753
:100EDC007908F201F2070A128A11F3260A128A1112
:100EEC00710883120313A301A3077008A201A207C0
:100EFC000A30F0000030F1002308F301F307220858
:100F0C00F201F2070A128A1123260A128A117108B9
:100F1C0083120313A301A3077008A201A2070A30CE
:100F2C00F0000030F1007A08F301F3077908F201C0
:100F3C00F2070A128A1123260A128A1171088312E7
:100F4C000313A101A1077008A001A007A401A5012A
:100F5C002508803AFF0080307F02031DB72F0A302E
:100F6C002402031CBA2FBB2FBD2FFF2FFF2F831280
:100F7C0003132208013E84000A128A1103200A126C
:100F8C008A11860007146430F0000030F1000A1258
:100F9C008A110A260A128A118312031307102008D9
:100FAC00013E84000A128A1103200A128A1186005B
:100FBC0087146430F0000030F1000A128A110A26FE
:100FCC000A128A118312031387100130A407031825
:100FDC00A50A0030A5072508803AFF0080307F0263
:100FEC00031DFA2F0A302402031CFD2FFE2FBD2FE8
:040FFC00FF2F0800BB
:00000001FF
